{
  "contractName": "Lottery",
  "abi": [
    {
      "inputs": [
        {
          "internalType": "address",
          "name": "_ethUsdPriceFeed",
          "type": "address"
        },
        {
          "internalType": "address",
          "name": "_vrfCoordinator",
          "type": "address"
        },
        {
          "internalType": "address",
          "name": "_link",
          "type": "address"
        },
        {
          "internalType": "bytes32",
          "name": "_keyHash",
          "type": "bytes32"
        }
      ],
      "stateMutability": "nonpayable",
      "type": "constructor"
    },
    {
      "anonymous": false,
      "inputs": [
        {
          "indexed": true,
          "internalType": "address",
          "name": "previousOwner",
          "type": "address"
        },
        {
          "indexed": true,
          "internalType": "address",
          "name": "newOwner",
          "type": "address"
        }
      ],
      "name": "OwnershipTransferred",
      "type": "event"
    },
    {
      "anonymous": false,
      "inputs": [
        {
          "indexed": false,
          "internalType": "bytes32",
          "name": "requestId",
          "type": "bytes32"
        }
      ],
      "name": "RequestedRandomness",
      "type": "event"
    },
    {
      "inputs": [],
      "name": "fee",
      "outputs": [
        {
          "internalType": "uint256",
          "name": "",
          "type": "uint256"
        }
      ],
      "stateMutability": "view",
      "type": "function"
    },
    {
      "inputs": [],
      "name": "keyHash",
      "outputs": [
        {
          "internalType": "bytes32",
          "name": "",
          "type": "bytes32"
        }
      ],
      "stateMutability": "view",
      "type": "function"
    },
    {
      "inputs": [],
      "name": "lotteryState",
      "outputs": [
        {
          "internalType": "enum Lottery.LOTTERY_STATE",
          "name": "",
          "type": "uint8"
        }
      ],
      "stateMutability": "view",
      "type": "function"
    },
    {
      "inputs": [],
      "name": "owner",
      "outputs": [
        {
          "internalType": "address",
          "name": "",
          "type": "address"
        }
      ],
      "stateMutability": "view",
      "type": "function"
    },
    {
      "inputs": [
        {
          "internalType": "uint256",
          "name": "",
          "type": "uint256"
        }
      ],
      "name": "players",
      "outputs": [
        {
          "internalType": "address payable",
          "name": "",
          "type": "address"
        }
      ],
      "stateMutability": "view",
      "type": "function"
    },
    {
      "inputs": [],
      "name": "randomness",
      "outputs": [
        {
          "internalType": "uint256",
          "name": "",
          "type": "uint256"
        }
      ],
      "stateMutability": "view",
      "type": "function"
    },
    {
      "inputs": [
        {
          "internalType": "bytes32",
          "name": "requestId",
          "type": "bytes32"
        },
        {
          "internalType": "uint256",
          "name": "randomness",
          "type": "uint256"
        }
      ],
      "name": "rawFulfillRandomness",
      "outputs": [],
      "stateMutability": "nonpayable",
      "type": "function"
    },
    {
      "inputs": [],
      "name": "recentWinner",
      "outputs": [
        {
          "internalType": "address",
          "name": "",
          "type": "address"
        }
      ],
      "stateMutability": "view",
      "type": "function"
    },
    {
      "inputs": [],
      "name": "renounceOwnership",
      "outputs": [],
      "stateMutability": "nonpayable",
      "type": "function"
    },
    {
      "inputs": [
        {
          "internalType": "address",
          "name": "newOwner",
          "type": "address"
        }
      ],
      "name": "transferOwnership",
      "outputs": [],
      "stateMutability": "nonpayable",
      "type": "function"
    },
    {
      "inputs": [],
      "name": "usdEntryFee",
      "outputs": [
        {
          "internalType": "uint256",
          "name": "",
          "type": "uint256"
        }
      ],
      "stateMutability": "view",
      "type": "function"
    },
    {
      "inputs": [],
      "name": "enter",
      "outputs": [],
      "stateMutability": "payable",
      "type": "function"
    },
    {
      "inputs": [],
      "name": "getEntranceFee",
      "outputs": [
        {
          "internalType": "uint256",
          "name": "",
          "type": "uint256"
        }
      ],
      "stateMutability": "view",
      "type": "function"
    },
    {
      "inputs": [],
      "name": "startLottery",
      "outputs": [],
      "stateMutability": "nonpayable",
      "type": "function"
    },
    {
      "inputs": [
        {
          "internalType": "uint256",
          "name": "userProvidedSeed",
          "type": "uint256"
        }
      ],
      "name": "endLottery",
      "outputs": [],
      "stateMutability": "nonpayable",
      "type": "function"
    }
  ],
  "bytecode": "0x60c060405234801561001057600080fd5b506040516118293803806118298339818101604052608081101561003357600080fd5b810190808051906020019092919080519060200190929190805190602001909291908051906020019092919050505082828173ffffffffffffffffffffffffffffffffffffffff1660a08173ffffffffffffffffffffffffffffffffffffffff1660601b815250508073ffffffffffffffffffffffffffffffffffffffff1660808173ffffffffffffffffffffffffffffffffffffffff1660601b81525050505060006100e461020e60201b60201c565b905080600160006101000a81548173ffffffffffffffffffffffffffffffffffffffff021916908373ffffffffffffffffffffffffffffffffffffffff1602179055508073ffffffffffffffffffffffffffffffffffffffff16600073ffffffffffffffffffffffffffffffffffffffff167f8be0079c531659141344cd1fd0a4f28419497f9722a3daafe3b4186f6b6457e060405160405180910390a35083600260006101000a81548173ffffffffffffffffffffffffffffffffffffffff021916908373ffffffffffffffffffffffffffffffffffffffff160217905550603260058190555060018060146101000a81548160ff021916908360028111156101ea57fe5b021790555067016345785d8a00006007819055508060088190555050505050610216565b600033905090565b60805160601c60a05160601c6115e56102446000398061093c528061119452508061115852506115e56000f3fe6080604052600436106100e85760003560e01c8063715018a61161008a578063ddca3f4311610059578063ddca3f431461032e578063e97dcb6214610359578063f2fde38b14610363578063f71d96cb146103b4576100e8565b8063715018a61461025057806388ab139a146102675780638da5cb5b1461029257806394985ddd146102e9576100e8565b80633739e769116100c65780633739e7691461015a5780634f8c70cf1461019557806361728f39146101ec5780636939864b14610217576100e8565b806309bc33a7146100ed578063160344e214610118578063360131891461012f575b600080fd5b3480156100f957600080fd5b5061010261042f565b6040518082815260200191505060405180910390f35b34801561012457600080fd5b5061012d61046a565b005b34801561013b57600080fd5b506101446105da565b6040518082815260200191505060405180910390f35b34801561016657600080fd5b506101936004803603602081101561017d57600080fd5b81019080803590602001909291905050506105e0565b005b3480156101a157600080fd5b506101aa61075b565b604051808273ffffffffffffffffffffffffffffffffffffffff1673ffffffffffffffffffffffffffffffffffffffff16815260200191505060405180910390f35b3480156101f857600080fd5b50610201610781565b6040518082815260200191505060405180910390f35b34801561022357600080fd5b5061022c610787565b6040518082600281111561023c57fe5b60ff16815260200191505060405180910390f35b34801561025c57600080fd5b5061026561079a565b005b34801561027357600080fd5b5061027c61090a565b6040518082815260200191505060405180910390f35b34801561029e57600080fd5b506102a7610910565b604051808273ffffffffffffffffffffffffffffffffffffffff1673ffffffffffffffffffffffffffffffffffffffff16815260200191505060405180910390f35b3480156102f557600080fd5b5061032c6004803603604081101561030c57600080fd5b81019080803590602001909291908035906020019092919050505061093a565b005b34801561033a57600080fd5b50610343610a09565b6040518082815260200191505060405180910390f35b610361610a0f565b005b34801561036f57600080fd5b506103b26004803603602081101561038657600080fd5b81019080803573ffffffffffffffffffffffffffffffffffffffff169060200190929190505050610b8c565b005b3480156103c057600080fd5b506103ed600480360360208110156103d757600080fd5b8101908080359060200190929190505050610d81565b604051808273ffffffffffffffffffffffffffffffffffffffff1673ffffffffffffffffffffffffffffffffffffffff16815260200191505060405180910390f35b600080670de0b6b3a764000090506000610447610dbd565b905060006305f5e1006005540282848161045d57fe5b0402905080935050505090565b610472610ea6565b73ffffffffffffffffffffffffffffffffffffffff16610490610910565b73ffffffffffffffffffffffffffffffffffffffff1614610519576040517f08c379a00000000000000000000000000000000000000000000000000000000081526004018080602001828103825260208152602001807f4f776e61626c653a2063616c6c6572206973206e6f7420746865206f776e657281525060200191505060405180910390fd5b6001600281111561052657fe5b600160149054906101000a900460ff16600281111561054157fe5b146105b4576040517f08c379a00000000000000000000000000000000000000000000000000000000081526004018080602001828103825260198152602001807f43616e27742073746172742061206e6577206c6f74746572790000000000000081525060200191505060405180910390fd5b6000600160146101000a81548160ff021916908360028111156105d357fe5b0217905550565b60065481565b6105e8610ea6565b73ffffffffffffffffffffffffffffffffffffffff16610606610910565b73ffffffffffffffffffffffffffffffffffffffff161461068f576040517f08c379a00000000000000000000000000000000000000000000000000000000081526004018080602001828103825260208152602001807f4f776e61626c653a2063616c6c6572206973206e6f7420746865206f776e657281525060200191505060405180910390fd5b6000600281111561069c57fe5b600160149054906101000a900460ff1660028111156106b757fe5b1461072a576040517f08c379a00000000000000000000000000000000000000000000000000000000081526004018080602001828103825260158152602001807f43616e277420656e64206c6f747465727920796574000000000000000000000081525060200191505060405180910390fd5b6002600160146101000a81548160ff0219169083600281111561074957fe5b021790555061075781610eae565b5050565b600460009054906101000a900473ffffffffffffffffffffffffffffffffffffffff1681565b60085481565b600160149054906101000a900460ff1681565b6107a2610ea6565b73ffffffffffffffffffffffffffffffffffffffff166107c0610910565b73ffffffffffffffffffffffffffffffffffffffff1614610849576040517f08c379a00000000000000000000000000000000000000000000000000000000081526004018080602001828103825260208152602001807f4f776e61626c653a2063616c6c6572206973206e6f7420746865206f776e657281525060200191505060405180910390fd5b600073ffffffffffffffffffffffffffffffffffffffff16600160009054906101000a900473ffffffffffffffffffffffffffffffffffffffff1673ffffffffffffffffffffffffffffffffffffffff167f8be0079c531659141344cd1fd0a4f28419497f9722a3daafe3b4186f6b6457e060405160405180910390a36000600160006101000a81548173ffffffffffffffffffffffffffffffffffffffff021916908373ffffffffffffffffffffffffffffffffffffffff160217905550565b60055481565b6000600160009054906101000a900473ffffffffffffffffffffffffffffffffffffffff16905090565b7f000000000000000000000000000000000000000000000000000000000000000073ffffffffffffffffffffffffffffffffffffffff163373ffffffffffffffffffffffffffffffffffffffff16146109fb576040517f08c379a000000000000000000000000000000000000000000000000000000000815260040180806020018281038252601f8152602001807f4f6e6c7920565246436f6f7264696e61746f722063616e2066756c66696c6c0081525060200191505060405180910390fd5b610a058282610f7d565b5050565b60075481565b610a1761042f565b341015610a8c576040517f08c379a00000000000000000000000000000000000000000000000000000000081526004018080602001828103825260188152602001807f4e6f7420656e6f7567682045544820746f20656e74657221000000000000000081525060200191505060405180910390fd5b60006002811115610a9957fe5b600160149054906101000a900460ff166002811115610ab457fe5b14610b27576040517f08c379a000000000000000000000000000000000000000000000000000000000815260040180806020018281038252601a8152602001807f4c6f7474657279206e6f742063757272656e746c79206f70656e00000000000081525060200191505060405180910390fd5b6003339080600181540180825580915050600190039060005260206000200160009091909190916101000a81548173ffffffffffffffffffffffffffffffffffffffff021916908373ffffffffffffffffffffffffffffffffffffffff160217905550565b610b94610ea6565b73ffffffffffffffffffffffffffffffffffffffff16610bb2610910565b73ffffffffffffffffffffffffffffffffffffffff1614610c3b576040517f08c379a00000000000000000000000000000000000000000000000000000000081526004018080602001828103825260208152602001807f4f776e61626c653a2063616c6c6572206973206e6f7420746865206f776e657281525060200191505060405180910390fd5b600073ffffffffffffffffffffffffffffffffffffffff168173ffffffffffffffffffffffffffffffffffffffff161415610cc1576040517f08c379a00000000000000000000000000000000000000000000000000000000081526004018080602001828103825260268152602001806115686026913960400191505060405180910390fd5b8073ffffffffffffffffffffffffffffffffffffffff16600160009054906101000a900473ffffffffffffffffffffffffffffffffffffffff1673ffffffffffffffffffffffffffffffffffffffff167f8be0079c531659141344cd1fd0a4f28419497f9722a3daafe3b4186f6b6457e060405160405180910390a380600160006101000a81548173ffffffffffffffffffffffffffffffffffffffff021916908373ffffffffffffffffffffffffffffffffffffffff16021790555050565b60038181548110610d8e57fe5b906000526020600020016000915054906101000a900473ffffffffffffffffffffffffffffffffffffffff1681565b600080600080600080600260009054906101000a900473ffffffffffffffffffffffffffffffffffffffff1673ffffffffffffffffffffffffffffffffffffffff1663feaf968c6040518163ffffffff1660e01b815260040160a06040518083038186803b158015610e2e57600080fd5b505afa158015610e42573d6000803e3d6000fd5b505050506040513d60a0811015610e5857600080fd5b81019080805190602001909291908051906020019092919080519060200190929190805190602001909291908051906020019092919050505094509450945094509450839550505050505090565b600033905090565b6000600280811115610ebc57fe5b600160149054906101000a900460ff166002811115610ed757fe5b14610f2d576040517f08c379a000000000000000000000000000000000000000000000000000000000815260040180806020018281038252602281526020018061158e6022913960400191505060405180910390fd5b6000610f3e60085460075485611154565b90507fe5f5b44d72d4143c278eb745c4acc0695c4a5bc616be5beecf46abe29661780e816040518082815260200191505060405180910390a150919050565b60008111610ff3576040517f08c379a00000000000000000000000000000000000000000000000000000000081526004018080602001828103825260178152602001807f72616e646f6d206e756d626572206e6f7420666f756e6400000000000000000081525060200191505060405180910390fd5b6000600380549050828161100357fe5b06905060006003828154811061101557fe5b9060005260206000200160009054906101000a900473ffffffffffffffffffffffffffffffffffffffff16905080600460006101000a81548173ffffffffffffffffffffffffffffffffffffffff021916908373ffffffffffffffffffffffffffffffffffffffff160217905550600067ffffffffffffffff8111801561109b57600080fd5b506040519080825280602002602001820160405280156110ca5781602001602082028036833780820191505090505b50600390805190602001906110e092919061149a565b5060018060146101000a81548160ff021916908360028111156110ff57fe5b02179055508292508073ffffffffffffffffffffffffffffffffffffffff166108fc479081150290604051600060405180830381858888f1935050505015801561114d573d6000803e3d6000fd5b5050505050565b60007f000000000000000000000000000000000000000000000000000000000000000073ffffffffffffffffffffffffffffffffffffffff16634000aea07f000000000000000000000000000000000000000000000000000000000000000085878660405160200180838152602001828152602001925050506040516020818303038152906040526040518463ffffffff1660e01b8152600401808473ffffffffffffffffffffffffffffffffffffffff1673ffffffffffffffffffffffffffffffffffffffff16815260200183815260200180602001828103825283818151815260200191508051906020019080838360005b83811015611263578082015181840152602081019050611248565b50505050905090810190601f1680156112905780820380516001836020036101000a031916815260200191505b50945050505050602060405180830381600087803b1580156112b157600080fd5b505af11580156112c5573d6000803e3d6000fd5b505050506040513d60208110156112db57600080fd5b810190808051906020019092919050505050600061130d8584306000808a81526020019081526020016000205461135f565b90506113356001600080888152602001908152602001600020546113d990919063ffffffff16565b600080878152602001908152602001600020819055506113558582611461565b9150509392505050565b600084848484604051602001808581526020018481526020018373ffffffffffffffffffffffffffffffffffffffff1673ffffffffffffffffffffffffffffffffffffffff1681526020018281526020019450505050506040516020818303038152906040528051906020012060001c9050949350505050565b600080828401905083811015611457576040517f08c379a000000000000000000000000000000000000000000000000000000000815260040180806020018281038252601b8152602001807f536166654d6174683a206164646974696f6e206f766572666c6f77000000000081525060200191505060405180910390fd5b8091505092915050565b60008282604051602001808381526020018281526020019250505060405160208183030381529060405280519060200120905092915050565b828054828255906000526020600020908101928215611513579160200282015b828111156115125782518260006101000a81548173ffffffffffffffffffffffffffffffffffffffff021916908373ffffffffffffffffffffffffffffffffffffffff160217905550916020019190600101906114ba565b5b5090506115209190611524565b5090565b61156491905b8082111561156057600081816101000a81549073ffffffffffffffffffffffffffffffffffffffff02191690555060010161152a565b5090565b9056fe4f776e61626c653a206e6577206f776e657220697320746865207a65726f20616464726573734e6565647320746f2062652063616c63756c6174696e67207468652077696e6e6572a2646970667358221220f40a199a240aa318e3bd176d26ad16c6098fd350ad9cc758ea78f29134ef6d2e64736f6c63430006060033",
  "immutableReferences": {
    "376": [
      {
        "length": 32,
        "start": 4440
      }
    ],
    "378": [
      {
        "length": 32,
        "start": 2364
      },
      {
        "length": 32,
        "start": 4500
      }
    ]
  },
  "source": "pragma solidity ^0.6.6;\n\nimport \"@chainlink/contracts/src/v0.6/interfaces/AggregatorV3Interface.sol\";\nimport \"@openzeppelin/contracts/access/Ownable.sol\";\nimport \"@chainlink/contracts/src/v0.6/VRFConsumerBase.sol\";\n\ncontract Lottery is VRFConsumerBase, Ownable {\n\n    using SafeMathChainlink for uint256;\n\n    enum LOTTERY_STATE {OPEN, CLOSED, CALCULATING_WINNER}\n    LOTTERY_STATE public lotteryState;\n    AggregatorV3Interface internal ethUsdPriceFeed;\n    address payable[] public players;\n    address public recentWinner;\n    uint256 public usdEntryFee;\n    uint256 public randomness;\n    uint256 public fee;\n    bytes32 public keyHash;\n    event RequestedRandomness(bytes32 requestId);\n\n\n    constructor(address _ethUsdPriceFeed, address _vrfCoordinator, address _link, bytes32 _keyHash) \n    VRFConsumerBase(\n        _vrfCoordinator,\n        _link\n    )\n    public {\n        ethUsdPriceFeed = AggregatorV3Interface(_ethUsdPriceFeed);\n        usdEntryFee = 50;\n        lotteryState = LOTTERY_STATE.CLOSED;\n        fee = 100000000000000000;// 0.1 LINK\n        keyHash = _keyHash;\n    }\n\n    function enter() public payable {\n        require(msg.value >= getEntranceFee(), \"Not enough ETH to enter!\");\n        require(lotteryState == LOTTERY_STATE.OPEN, \"Lottery not currently open\");\n        players.push(msg.sender);\n    }\n\n    function getEntranceFee() public view returns(uint256) {\n        uint256 precision = 1 * 10 ** 18;\n        uint256 price = getLatestEthUsdPrice();\n        uint256 costToEnter = (precision/price) * (usdEntryFee * 100000000);\n        return costToEnter;\n    }\n\n    function getLatestEthUsdPrice() internal view returns(uint256){\n        (\n            uint80 roundID,\n            int price,\n            uint startedAt,\n            uint timeStamp,\n            uint80 answeredInRound\n        ) = ethUsdPriceFeed.latestRoundData();\n        return uint256(price);\n    }\n\n    function startLottery() public onlyOwner{\n        require(lotteryState == LOTTERY_STATE.CLOSED, \"Can't start a new lottery\");\n        lotteryState = LOTTERY_STATE.OPEN;\n    }\n\n    function endLottery(uint256 userProvidedSeed) public onlyOwner{\n        require(lotteryState == LOTTERY_STATE.OPEN, \"Can't end lottery yet\");\n        lotteryState = LOTTERY_STATE.CALCULATING_WINNER;\n        pickWinner(userProvidedSeed);\n    }\n\n    function pickWinner(uint256 userProvidedSeed) private returns(bytes32){\n        require(lotteryState == LOTTERY_STATE.CALCULATING_WINNER, \"Needs to be calculating the winner\");\n        bytes32 requestId = requestRandomness(keyHash, fee, userProvidedSeed);\n        emit RequestedRandomness(requestId);\n    }\n\n    function fulfillRandomness(bytes32 requestId, uint256 randomness) internal override{\n        require(randomness > 0, \"random number not found\");\n        uint256 index = randomness % players.length;\n        address payable winner = players[index];\n        recentWinner = winner;\n        players = new address payable[](0);\n        lotteryState = LOTTERY_STATE.CLOSED;\n        randomness = randomness;\n        winner.transfer(address(this).balance);\n    }\n\n}\n",
  "sourcePath": "/Users/user/Documents/Programming-portfolio/Lottery-project/contracts/Lottery.sol",
  "compiler": {
    "name": "solc",
    "version": "0.6.6+commit.6c089d02.Emscripten.clang"
  },
  "schemaVersion": "3.4.1",
  "updatedAt": "2021-05-29T15:27:20.592Z",
  "devdoc": {
    "methods": {
      "owner()": {
        "details": "Returns the address of the current owner."
      },
      "renounceOwnership()": {
        "details": "Leaves the contract without owner. It will not be possible to call `onlyOwner` functions anymore. Can only be called by the current owner.     * NOTE: Renouncing ownership will leave the contract without an owner, thereby removing any functionality that is only available to the owner."
      },
      "transferOwnership(address)": {
        "details": "Transfers ownership of the contract to a new account (`newOwner`). Can only be called by the current owner."
      }
    }
  },
  "userdoc": {
    "methods": {}
  }
}