{
  "contractName": "Lottery",
  "abi": [
    {
      "inputs": [
        {
          "internalType": "address",
          "name": "_ethUsdPriceFeed",
          "type": "address"
        },
        {
          "internalType": "address",
          "name": "_vrfCoordinator",
          "type": "address"
        },
        {
          "internalType": "address",
          "name": "_link",
          "type": "address"
        },
        {
          "internalType": "bytes32",
          "name": "_keyHash",
          "type": "bytes32"
        }
      ],
      "stateMutability": "nonpayable",
      "type": "constructor"
    },
    {
      "anonymous": false,
      "inputs": [
        {
          "indexed": true,
          "internalType": "address",
          "name": "previousOwner",
          "type": "address"
        },
        {
          "indexed": true,
          "internalType": "address",
          "name": "newOwner",
          "type": "address"
        }
      ],
      "name": "OwnershipTransferred",
      "type": "event"
    },
    {
      "anonymous": false,
      "inputs": [
        {
          "indexed": false,
          "internalType": "bytes32",
          "name": "requestId",
          "type": "bytes32"
        }
      ],
      "name": "RequestedRandomness",
      "type": "event"
    },
    {
      "inputs": [],
      "name": "fee",
      "outputs": [
        {
          "internalType": "uint256",
          "name": "",
          "type": "uint256"
        }
      ],
      "stateMutability": "view",
      "type": "function"
    },
    {
      "inputs": [],
      "name": "keyHash",
      "outputs": [
        {
          "internalType": "bytes32",
          "name": "",
          "type": "bytes32"
        }
      ],
      "stateMutability": "view",
      "type": "function"
    },
    {
      "inputs": [],
      "name": "lotteryState",
      "outputs": [
        {
          "internalType": "enum Lottery.LOTTERY_STATE",
          "name": "",
          "type": "uint8"
        }
      ],
      "stateMutability": "view",
      "type": "function"
    },
    {
      "inputs": [],
      "name": "owner",
      "outputs": [
        {
          "internalType": "address",
          "name": "",
          "type": "address"
        }
      ],
      "stateMutability": "view",
      "type": "function"
    },
    {
      "inputs": [
        {
          "internalType": "uint256",
          "name": "",
          "type": "uint256"
        }
      ],
      "name": "players",
      "outputs": [
        {
          "internalType": "address payable",
          "name": "",
          "type": "address"
        }
      ],
      "stateMutability": "view",
      "type": "function"
    },
    {
      "inputs": [],
      "name": "randomness",
      "outputs": [
        {
          "internalType": "uint256",
          "name": "",
          "type": "uint256"
        }
      ],
      "stateMutability": "view",
      "type": "function"
    },
    {
      "inputs": [
        {
          "internalType": "bytes32",
          "name": "requestId",
          "type": "bytes32"
        },
        {
          "internalType": "uint256",
          "name": "randomness",
          "type": "uint256"
        }
      ],
      "name": "rawFulfillRandomness",
      "outputs": [],
      "stateMutability": "nonpayable",
      "type": "function"
    },
    {
      "inputs": [],
      "name": "renounceOwnership",
      "outputs": [],
      "stateMutability": "nonpayable",
      "type": "function"
    },
    {
      "inputs": [
        {
          "internalType": "address",
          "name": "newOwner",
          "type": "address"
        }
      ],
      "name": "transferOwnership",
      "outputs": [],
      "stateMutability": "nonpayable",
      "type": "function"
    },
    {
      "inputs": [],
      "name": "usdEntryFee",
      "outputs": [
        {
          "internalType": "uint256",
          "name": "",
          "type": "uint256"
        }
      ],
      "stateMutability": "view",
      "type": "function"
    },
    {
      "inputs": [],
      "name": "enter",
      "outputs": [],
      "stateMutability": "payable",
      "type": "function"
    },
    {
      "inputs": [],
      "name": "getEntranceFee",
      "outputs": [
        {
          "internalType": "uint256",
          "name": "",
          "type": "uint256"
        }
      ],
      "stateMutability": "view",
      "type": "function"
    },
    {
      "inputs": [],
      "name": "getLatestEthUsdPrice",
      "outputs": [
        {
          "internalType": "uint256",
          "name": "",
          "type": "uint256"
        }
      ],
      "stateMutability": "view",
      "type": "function"
    },
    {
      "inputs": [],
      "name": "startLottery",
      "outputs": [],
      "stateMutability": "nonpayable",
      "type": "function"
    },
    {
      "inputs": [
        {
          "internalType": "uint256",
          "name": "userProvidedSeed",
          "type": "uint256"
        }
      ],
      "name": "endLottery",
      "outputs": [],
      "stateMutability": "nonpayable",
      "type": "function"
    },
    {
      "inputs": [
        {
          "internalType": "uint256",
          "name": "userProvidedSeed",
          "type": "uint256"
        }
      ],
      "name": "pickWinner",
      "outputs": [
        {
          "internalType": "bytes32",
          "name": "",
          "type": "bytes32"
        }
      ],
      "stateMutability": "nonpayable",
      "type": "function"
    }
  ],
  "bytecode": "0x60c060405234801561001057600080fd5b506040516117f03803806117f08339818101604052608081101561003357600080fd5b810190808051906020019092919080519060200190929190805190602001909291908051906020019092919050505082828173ffffffffffffffffffffffffffffffffffffffff1660a08173ffffffffffffffffffffffffffffffffffffffff1660601b815250508073ffffffffffffffffffffffffffffffffffffffff1660808173ffffffffffffffffffffffffffffffffffffffff1660601b81525050505060006100e461020e60201b60201c565b905080600160006101000a81548173ffffffffffffffffffffffffffffffffffffffff021916908373ffffffffffffffffffffffffffffffffffffffff1602179055508073ffffffffffffffffffffffffffffffffffffffff16600073ffffffffffffffffffffffffffffffffffffffff167f8be0079c531659141344cd1fd0a4f28419497f9722a3daafe3b4186f6b6457e060405160405180910390a35083600260006101000a81548173ffffffffffffffffffffffffffffffffffffffff021916908373ffffffffffffffffffffffffffffffffffffffff160217905550603260048190555060018060146101000a81548160ff021916908360028111156101ea57fe5b021790555067016345785d8a00006006819055508060078190555050505050610216565b600033905090565b60805160601c60a05160601c6115ac61024460003980610a2d528061115b52508061111f52506115ac6000f3fe6080604052600436106100f35760003560e01c806388ab139a1161008a578063e97dcb6211610059578063e97dcb6214610338578063f2fde38b14610342578063f71d96cb14610393578063f737d21d1461040e576100f3565b806388ab139a146102465780638da5cb5b1461027157806394985ddd146102c8578063ddca3f431461030d576100f3565b80633739e769116100c65780633739e7691461019057806361728f39146101cb5780636939864b146101f6578063715018a61461022f576100f3565b806309bc33a7146100f8578063160344e214610123578063302145991461013a5780633601318914610165575b600080fd5b34801561010457600080fd5b5061010d61045d565b6040518082815260200191505060405180910390f35b34801561012f57600080fd5b50610138610498565b005b34801561014657600080fd5b5061014f610608565b6040518082815260200191505060405180910390f35b34801561017157600080fd5b5061017a6106f1565b6040518082815260200191505060405180910390f35b34801561019c57600080fd5b506101c9600480360360208110156101b357600080fd5b81019080803590602001909291905050506106f7565b005b3480156101d757600080fd5b506101e0610872565b6040518082815260200191505060405180910390f35b34801561020257600080fd5b5061020b610878565b6040518082600281111561021b57fe5b60ff16815260200191505060405180910390f35b34801561023b57600080fd5b5061024461088b565b005b34801561025257600080fd5b5061025b6109fb565b6040518082815260200191505060405180910390f35b34801561027d57600080fd5b50610286610a01565b604051808273ffffffffffffffffffffffffffffffffffffffff1673ffffffffffffffffffffffffffffffffffffffff16815260200191505060405180910390f35b3480156102d457600080fd5b5061030b600480360360408110156102eb57600080fd5b810190808035906020019092919080359060200190929190505050610a2b565b005b34801561031957600080fd5b50610322610afa565b6040518082815260200191505060405180910390f35b610340610b00565b005b34801561034e57600080fd5b506103916004803603602081101561036557600080fd5b81019080803573ffffffffffffffffffffffffffffffffffffffff169060200190929190505050610c7d565b005b34801561039f57600080fd5b506103cc600480360360208110156103b657600080fd5b8101908080359060200190929190505050610e72565b604051808273ffffffffffffffffffffffffffffffffffffffff1673ffffffffffffffffffffffffffffffffffffffff16815260200191505060405180910390f35b34801561041a57600080fd5b506104476004803603602081101561043157600080fd5b8101908080359060200190929190505050610eae565b6040518082815260200191505060405180910390f35b600080670de0b6b3a764000090506000610475610608565b905060006305f5e1006004540282848161048b57fe5b0402905080935050505090565b6104a0610f7d565b73ffffffffffffffffffffffffffffffffffffffff166104be610a01565b73ffffffffffffffffffffffffffffffffffffffff1614610547576040517f08c379a00000000000000000000000000000000000000000000000000000000081526004018080602001828103825260208152602001807f4f776e61626c653a2063616c6c6572206973206e6f7420746865206f776e657281525060200191505060405180910390fd5b6001600281111561055457fe5b600160149054906101000a900460ff16600281111561056f57fe5b146105e2576040517f08c379a00000000000000000000000000000000000000000000000000000000081526004018080602001828103825260198152602001807f43616e27742073746172742061206e6577206c6f74746572790000000000000081525060200191505060405180910390fd5b6000600160146101000a81548160ff0219169083600281111561060157fe5b0217905550565b600080600080600080600260009054906101000a900473ffffffffffffffffffffffffffffffffffffffff1673ffffffffffffffffffffffffffffffffffffffff1663feaf968c6040518163ffffffff1660e01b815260040160a06040518083038186803b15801561067957600080fd5b505afa15801561068d573d6000803e3d6000fd5b505050506040513d60a08110156106a357600080fd5b81019080805190602001909291908051906020019092919080519060200190929190805190602001909291908051906020019092919050505094509450945094509450839550505050505090565b60055481565b6106ff610f7d565b73ffffffffffffffffffffffffffffffffffffffff1661071d610a01565b73ffffffffffffffffffffffffffffffffffffffff16146107a6576040517f08c379a00000000000000000000000000000000000000000000000000000000081526004018080602001828103825260208152602001807f4f776e61626c653a2063616c6c6572206973206e6f7420746865206f776e657281525060200191505060405180910390fd5b600060028111156107b357fe5b600160149054906101000a900460ff1660028111156107ce57fe5b14610841576040517f08c379a00000000000000000000000000000000000000000000000000000000081526004018080602001828103825260158152602001807f43616e277420656e64206c6f747465727920796574000000000000000000000081525060200191505060405180910390fd5b6002600160146101000a81548160ff0219169083600281111561086057fe5b021790555061086e81610eae565b5050565b60075481565b600160149054906101000a900460ff1681565b610893610f7d565b73ffffffffffffffffffffffffffffffffffffffff166108b1610a01565b73ffffffffffffffffffffffffffffffffffffffff161461093a576040517f08c379a00000000000000000000000000000000000000000000000000000000081526004018080602001828103825260208152602001807f4f776e61626c653a2063616c6c6572206973206e6f7420746865206f776e657281525060200191505060405180910390fd5b600073ffffffffffffffffffffffffffffffffffffffff16600160009054906101000a900473ffffffffffffffffffffffffffffffffffffffff1673ffffffffffffffffffffffffffffffffffffffff167f8be0079c531659141344cd1fd0a4f28419497f9722a3daafe3b4186f6b6457e060405160405180910390a36000600160006101000a81548173ffffffffffffffffffffffffffffffffffffffff021916908373ffffffffffffffffffffffffffffffffffffffff160217905550565b60045481565b6000600160009054906101000a900473ffffffffffffffffffffffffffffffffffffffff16905090565b7f000000000000000000000000000000000000000000000000000000000000000073ffffffffffffffffffffffffffffffffffffffff163373ffffffffffffffffffffffffffffffffffffffff1614610aec576040517f08c379a000000000000000000000000000000000000000000000000000000000815260040180806020018281038252601f8152602001807f4f6e6c7920565246436f6f7264696e61746f722063616e2066756c66696c6c0081525060200191505060405180910390fd5b610af68282610f85565b5050565b60065481565b610b0861045d565b341015610b7d576040517f08c379a00000000000000000000000000000000000000000000000000000000081526004018080602001828103825260188152602001807f4e6f7420656e6f7567682045544820746f20656e74657221000000000000000081525060200191505060405180910390fd5b60006002811115610b8a57fe5b600160149054906101000a900460ff166002811115610ba557fe5b14610c18576040517f08c379a000000000000000000000000000000000000000000000000000000000815260040180806020018281038252601a8152602001807f4c6f7474657279206e6f742063757272656e746c79206f70656e00000000000081525060200191505060405180910390fd5b6003339080600181540180825580915050600190039060005260206000200160009091909190916101000a81548173ffffffffffffffffffffffffffffffffffffffff021916908373ffffffffffffffffffffffffffffffffffffffff160217905550565b610c85610f7d565b73ffffffffffffffffffffffffffffffffffffffff16610ca3610a01565b73ffffffffffffffffffffffffffffffffffffffff1614610d2c576040517f08c379a00000000000000000000000000000000000000000000000000000000081526004018080602001828103825260208152602001807f4f776e61626c653a2063616c6c6572206973206e6f7420746865206f776e657281525060200191505060405180910390fd5b600073ffffffffffffffffffffffffffffffffffffffff168173ffffffffffffffffffffffffffffffffffffffff161415610db2576040517f08c379a000000000000000000000000000000000000000000000000000000000815260040180806020018281038252602681526020018061152f6026913960400191505060405180910390fd5b8073ffffffffffffffffffffffffffffffffffffffff16600160009054906101000a900473ffffffffffffffffffffffffffffffffffffffff1673ffffffffffffffffffffffffffffffffffffffff167f8be0079c531659141344cd1fd0a4f28419497f9722a3daafe3b4186f6b6457e060405160405180910390a380600160006101000a81548173ffffffffffffffffffffffffffffffffffffffff021916908373ffffffffffffffffffffffffffffffffffffffff16021790555050565b60038181548110610e7f57fe5b906000526020600020016000915054906101000a900473ffffffffffffffffffffffffffffffffffffffff1681565b6000600280811115610ebc57fe5b600160149054906101000a900460ff166002811115610ed757fe5b14610f2d576040517f08c379a00000000000000000000000000000000000000000000000000000000081526004018080602001828103825260228152602001806115556022913960400191505060405180910390fd5b6000610f3e6007546006548561111b565b90507fe5f5b44d72d4143c278eb745c4acc0695c4a5bc616be5beecf46abe29661780e816040518082815260200191505060405180910390a150919050565b600033905090565b60008111610ffb576040517f08c379a00000000000000000000000000000000000000000000000000000000081526004018080602001828103825260178152602001807f72616e646f6d206e756d626572206e6f7420666f756e6400000000000000000081525060200191505060405180910390fd5b6000600380549050828161100b57fe5b06905060006003828154811061101d57fe5b9060005260206000200160009054906101000a900473ffffffffffffffffffffffffffffffffffffffff169050600067ffffffffffffffff8111801561106257600080fd5b506040519080825280602002602001820160405280156110915781602001602082028036833780820191505090505b50600390805190602001906110a7929190611461565b5060018060146101000a81548160ff021916908360028111156110c657fe5b02179055508292508073ffffffffffffffffffffffffffffffffffffffff166108fc479081150290604051600060405180830381858888f19350505050158015611114573d6000803e3d6000fd5b5050505050565b60007f000000000000000000000000000000000000000000000000000000000000000073ffffffffffffffffffffffffffffffffffffffff16634000aea07f000000000000000000000000000000000000000000000000000000000000000085878660405160200180838152602001828152602001925050506040516020818303038152906040526040518463ffffffff1660e01b8152600401808473ffffffffffffffffffffffffffffffffffffffff1673ffffffffffffffffffffffffffffffffffffffff16815260200183815260200180602001828103825283818151815260200191508051906020019080838360005b8381101561122a57808201518184015260208101905061120f565b50505050905090810190601f1680156112575780820380516001836020036101000a031916815260200191505b50945050505050602060405180830381600087803b15801561127857600080fd5b505af115801561128c573d6000803e3d6000fd5b505050506040513d60208110156112a257600080fd5b81019080805190602001909291905050505060006112d48584306000808a815260200190815260200160002054611326565b90506112fc6001600080888152602001908152602001600020546113a090919063ffffffff16565b6000808781526020019081526020016000208190555061131c8582611428565b9150509392505050565b600084848484604051602001808581526020018481526020018373ffffffffffffffffffffffffffffffffffffffff1673ffffffffffffffffffffffffffffffffffffffff1681526020018281526020019450505050506040516020818303038152906040528051906020012060001c9050949350505050565b60008082840190508381101561141e576040517f08c379a000000000000000000000000000000000000000000000000000000000815260040180806020018281038252601b8152602001807f536166654d6174683a206164646974696f6e206f766572666c6f77000000000081525060200191505060405180910390fd5b8091505092915050565b60008282604051602001808381526020018281526020019250505060405160208183030381529060405280519060200120905092915050565b8280548282559060005260206000209081019282156114da579160200282015b828111156114d95782518260006101000a81548173ffffffffffffffffffffffffffffffffffffffff021916908373ffffffffffffffffffffffffffffffffffffffff16021790555091602001919060010190611481565b5b5090506114e791906114eb565b5090565b61152b91905b8082111561152757600081816101000a81549073ffffffffffffffffffffffffffffffffffffffff0219169055506001016114f1565b5090565b9056fe4f776e61626c653a206e6577206f776e657220697320746865207a65726f20616464726573734e6565647320746f2062652063616c63756c6174696e67207468652077696e6e6572a26469706673582212209df6048e093d1bb37cd9c072c1c0131e64397a3fa08962ba3b8df37de331667f64736f6c63430006060033",
  "immutableReferences": {
    "370": [
      {
        "length": 32,
        "start": 4383
      }
    ],
    "372": [
      {
        "length": 32,
        "start": 2605
      },
      {
        "length": 32,
        "start": 4443
      }
    ]
  },
  "source": "pragma solidity ^0.6.6;\n\nimport \"@chainlink/contracts/src/v0.6/interfaces/AggregatorV3Interface.sol\";\nimport \"@openzeppelin/contracts/access/Ownable.sol\";\nimport \"@chainlink/contracts/src/v0.6/VRFConsumerBase.sol\";\n\ncontract Lottery is VRFConsumerBase, Ownable {\n\n    using SafeMathChainlink for uint256;\n\n    enum LOTTERY_STATE {OPEN, CLOSED, CALCULATING_WINNER}\n    LOTTERY_STATE public lotteryState;\n    AggregatorV3Interface internal ethUsdPriceFeed;\n    address payable[] public players;\n    uint256 public usdEntryFee;\n    uint256 public randomness;\n    uint256 public fee;\n    bytes32 public keyHash;\n    event RequestedRandomness(bytes32 requestId);\n\n\n    constructor(address _ethUsdPriceFeed, address _vrfCoordinator, address _link, bytes32 _keyHash) \n    VRFConsumerBase(\n        _vrfCoordinator,\n        _link\n    )\n    public {\n        ethUsdPriceFeed = AggregatorV3Interface(_ethUsdPriceFeed);\n        usdEntryFee = 50;\n        lotteryState = LOTTERY_STATE.CLOSED;\n        fee = 100000000000000000;// 0.1 LINK\n        keyHash = _keyHash;\n    }\n\n    function enter() public payable {\n        require(msg.value >= getEntranceFee(), \"Not enough ETH to enter!\");\n        require(lotteryState == LOTTERY_STATE.OPEN, \"Lottery not currently open\");\n        players.push(msg.sender);\n    }\n\n    function getEntranceFee() public view returns(uint256) {\n        uint256 precision = 1 * 10 ** 18;\n        uint256 price = getLatestEthUsdPrice();\n        uint256 costToEnter = (precision/price) * (usdEntryFee * 100000000);\n        return costToEnter;\n    }\n\n    function getLatestEthUsdPrice() public view returns(uint256){\n        (\n            uint80 roundID,\n            int price,\n            uint startedAt,\n            uint timeStamp,\n            uint80 answeredInRound\n        ) = ethUsdPriceFeed.latestRoundData();\n        return uint256(price);\n    }\n\n    function startLottery() public onlyOwner{\n        require(lotteryState == LOTTERY_STATE.CLOSED, \"Can't start a new lottery\");\n        lotteryState = LOTTERY_STATE.OPEN;\n    }\n\n    function endLottery(uint256 userProvidedSeed) public onlyOwner{\n        require(lotteryState == LOTTERY_STATE.OPEN, \"Can't end lottery yet\");\n        lotteryState = LOTTERY_STATE.CALCULATING_WINNER;\n        pickWinner(userProvidedSeed);\n    }\n\n    function pickWinner(uint256 userProvidedSeed) public returns(bytes32){\n        require(lotteryState == LOTTERY_STATE.CALCULATING_WINNER, \"Needs to be calculating the winner\");\n        bytes32 requestId = requestRandomness(keyHash, fee, userProvidedSeed);\n        emit RequestedRandomness(requestId);\n    }\n\n    function fulfillRandomness(bytes32 requestId, uint256 randomness) internal override{\n        require(randomness > 0, \"random number not found\");\n        uint256 index = randomness % players.length;\n        address payable winner = players[index];\n        players = new address payable[](0);\n        lotteryState = LOTTERY_STATE.CLOSED;\n        randomness = randomness;\n        winner.transfer(address(this).balance);\n    }\n\n}\n",
  "sourcePath": "/Users/user/Documents/Programming-portfolio/Lottery-project/contracts/Lottery.sol",
  "compiler": {
    "name": "solc",
    "version": "0.6.6+commit.6c089d02.Emscripten.clang"
  },
  "schemaVersion": "3.4.1",
  "updatedAt": "2021-05-29T02:56:07.533Z",
  "devdoc": {
    "methods": {
      "owner()": {
        "details": "Returns the address of the current owner."
      },
      "renounceOwnership()": {
        "details": "Leaves the contract without owner. It will not be possible to call `onlyOwner` functions anymore. Can only be called by the current owner.     * NOTE: Renouncing ownership will leave the contract without an owner, thereby removing any functionality that is only available to the owner."
      },
      "transferOwnership(address)": {
        "details": "Transfers ownership of the contract to a new account (`newOwner`). Can only be called by the current owner."
      }
    }
  },
  "userdoc": {
    "methods": {}
  }
}